:1000000076C0E2C192C45AC48DC08CC08BC08AC075
:1000100089C088C087C086C085C084C083C00902EB
:1000200022000101008032090400000103000000E9
:10003000092101010001225F000705810308000A70
:100040001201100100000008C016DC0600010102C8
:1000500000011C035F0049005200460065006D006E
:1000600020004D006F007500730065005F001C03E9
:100070005F004A00450041005400200043004F004B
:10008000440049004E0047005F00040309040501D5
:100090000906A101854B050719E029E7150025018F
:1000A000750195088102950175082681001B0000E5
:1000B000070029818100C005010902A1010901A1F0
:1000C0000005091901290315002501854D950375C2
:1000D0000181029501750581030501093009310986
:1000E000381581257F750895038106C0C00011244D
:1000F0001FBECFE5D2E0DEBFCDBF10E0A0E6B0E08E
:10010000E6ECFDE002C005900D92A836B107D9F7E4
:1001100021E0A8E6B0E001C01D92A134B207E1F7EA
:10012000ADD44FC66DCFCF93C62F2091810024FF51
:1001300007C02091820038E823272093820003C063
:100140002AE520938100DC01E3E8F0E09C2F9E0F7C
:100150008D918193892F8E1B1816D4F36C2F83E811
:1001600090E02ED1CC5FC0938100CF910895CF93C2
:10017000DF9380919200835087FDA3C090918F0000
:1001800020918E002D3209F09AC0883009F097C076
:10019000CCE0D0E0C91BD109CA56DF4F83EC809375
:1001A00076008AE5809361001092680088818076ED
:1001B00019F0CE0127D47AC09A8110927F008981EC
:1001C000811106C0109280002FE730E082E06AC003
:1001D000853019F49093930062C0863009F049C0CD
:1001E0008B81813041F480E490E090939100809382
:1001F000900082E13AC0823041F48EE190E0909329
:1002000091008093900082E230C08330C9F4911154
:1002100008C08AE890E0909391008093900084E079
:1002200024C0913019F48EE690E004C09230E1F4DD
:1002300082E590E090939100809390008CE115C04E
:10024000813241F480E390E090939100809390009C
:1002500089E00BC0823241F48EE890E090939100E7
:10026000809390008FE501C080E090E49093680057
:100270001DC0883069F0893019F4909395000FC043
:100280008A3049F08B3059F48BE48093820007C0A8
:1002900025E930E002C02FE730E081E003C02FE71E
:1002A00030E080E030939100209390009F81911185
:1002B00004C09E81981708F4892F809360001092E3
:1002C00092008091610084FF4CC0809160008F3F5C
:1002D00009F447C0C82F893008F0C8E08C1B809310
:1002E00060008091760098E8892780937600CC237F
:1002F00061F180919000909191002091680026FF1B
:1003000012C0A7E7B0E026E730E020953095280F2F
:10031000391F4C2F4A0FF901EA0FFB1FE491ED93AF
:100320004A13F9CF09C0E7E7F0E0DC012C2F2E0FCC
:100330003D9131932E13FCCF01962FEF2C0F820F9E
:10034000911D90939100809390006C2F87E790E02F
:1003500037D0CC5FCC3019F08FEF80936000C09322
:10036000610084E196B3967031F48150D9F7109210
:10037000930010928D00DF91CF91089585B7826030
:1003800085BF8BB780648BBF8BE4809382008AE546
:10039000809381000895A82FB92F80E090E041E07C
:1003A00050EA609530E009C02D9182279795879596
:1003B00010F084279527305EC8F36F5FA8F3089587
:1003C000EADF8D939D930895CF93CFB7CF93DF93BB
:1003D000C395B19BE9F7B19B0BC0B19B09C0B19B21
:1003E00007C0B19B05C0B19B03C0B19B01C08BC0CE
:1003F0006F93C0918F00DD27CA56DF4F2F9365E5BD
:10040000B19B03C02F916F91E6CF0F931F934F9332
:1004100020E040E15F9306B3067001FB27F93F93AC
:1004200050E03BE039C0167040642F77012F5F5FCA
:100430001EC0406816B316702F7752501FC040641C
:1004400006B32F770670D1F15F5F00C023C0406212
:1004500016B32F77167091F15F5F00C025C006704C
:100460001027515012F45D5F0000115027952C3F6A
:1004700016B3C8F616700127015027952C3FC8F611
:100480004227499306B3067010274F7311502795E2
:100490002C3FA8F64695469516B3167079F00127BD
:1004A000015027952C3F98F66B5A60F3315006B3F4
:1004B000B0F600C010E41ABF002719C03B503195B8
:1004C000C31BD04010E41ABF0881033C09F10B3470
:1004D000F9F020918D001981110F1213EDCF4A818F
:1004E000441F093651F10D3211F0013E29F70093F6
:1004F00094003F915F914F911F910F912F916F91B8
:10050000CAB7C6FD65CFDF91CF91CFBFCF91189508
:1005100020919400222369F310919200112391F508
:10052000343092F13093920020938E0010918F001E
:100530003BE0311B30938F0027C0009192000130C7
:100540000CF50AE54F7049F43091610034FD1DC08F
:1005500000936100C6E7D0E01CC03091810034FDFB
:1005600014C000938100C2E8D0E013C0052710E05A
:1005700000C0000008BB1AC0052710E0221F1DC0E4
:1005800010E021C04AE502C032ED432FC4E1D0E0C3
:1005900032E017B31660C19A08B317BB56E020E8E3
:1005A00065E320FF052708BB279517951C3FF0F64C
:1005B0006695B8F7B1F720FF052708BB2795179573
:1005C0001C3FD0F62795179517FF052700001C3F05
:1005D00008BBB0F629913A9519F7097F109193005D
:1005E000110FC651D04008BB11F010938D0010E4DC
:1005F0001ABF026017B3197F402F497F54E05A9504
:10060000F1F708BB17BB48BB74CF8C5F089581E03E
:1006100088BB17BA85BB8BB780628BBF089515BAAC
:10062000089581E085BB089510BE18BE8EBD80E49C
:1006300089BF1FBC84E080BF089510BE089584E088
:1006400080BF08958F929F92AF92BF92CF92DF9218
:10065000EF92FF92CF93DF9300D000D0CDB7DEB7FB
:1006600019821A821B821C828090AF009090B00089
:10067000A090B100B090B200C980DA80EB80FC801D
:1006800088E5C816D104E104F10490F4CE01019686
:1006900083D386169706A806B90661F084E0C80ED3
:1006A000D11CE11CF11CC982DA82EB82FC82E4CF0E
:1006B00080E001C081E00F900F900F900F90DF91CC
:1006C000CF91FF90EF90DF90CF90BF90AF909F9031
:1006D0008F9008959AEF980F81E0993008F080E0AC
:1006E000089594EE980F81E09C3008F080E0089522
:1006F0009AE5980F81E0933108F080E008958091A9
:10070000B7009091B800865A8331A8F48091B9005F
:100710009091BA00C29778F48091B9009091BA0094
:10072000879748F08091BB009091BC009AEF980F9A
:1007300081E0993008F080E0089580E090E029E0C1
:1007400030E0FC01EE0FFF1FEB54FF4F318320839D
:10075000019686349105A9F70895CF92DF92EF9222
:10076000FF920F931F93CF93DF93CDB7DEB70DB7F3
:100770001EB7C090AC00C3948DB79EB78C19910979
:100780000FB6F8949EBF0FBE8DBF01967C01D82E88
:10079000FC0199E08E2F8D198C1510F49193FACFEE
:1007A000AEDF811105C0F70184E090E061E01FC079
:1007B0008FEF9FEFAFE2BFEF52C09C012150310994
:1007C000220F331FD901AB54BF4F4D915C9146505E
:1007D0004930A0F4DC01AA0FBB1FAB54BF4F4D91B1
:1007E0005C914650493050F41082319602963E2F6B
:1007F0003D192FEF280F2C1500F314C0D901AB546D
:10080000BF4F2D913C912650293078F7DC01AA0F7B
:10081000BB1FAB54BF4F2D913C912C512C3028F76E
:100820006083E3CF8091AF009091B000A091B100C0
:10083000B091B200F7012E2F2D19231780F42191CA
:10084000211105C0880F991FAA1FBB1FF4CF2130AB
:1008500091F7880F991FAA1FBB1F8160ECCF80936F
:10086000AF009093B000A093B100B093B20065DFE9
:100870000FB6F8941EBF0FBE0DBFDF91CF911F9131
:100880000F91FF90EF90DF90CF9008951092AD0000
:100890001092AF001092B0001092B1001092B2000E
:1008A0004CDF1092AC0081E085BB84E080BF0895EE
:1008B0001092AE0042DFABDE84E6B6CE1F920F92FE
:1008C0000FB60F9211242F938F939F938091B300B3
:1008D0009091B40001969093B4008093B3008091FE
:1008E000B3009091B4008D3C914020F01092B40080
:1008F0001092B3008091B3009091B400833C91407A
:1009000058F08091AE00882339F081E08093AD00EB
:100910001092AE0015BA10BE1FBC9F918F912F91FF
:100920000F900FBE0F901F9018951F920F920FB649
:100930000F9211248F939F93EF93FF93E091AC005C
:10094000F0E08091B3009091B400EE0FFF1FEB54E4
:10095000FF4F918380831092B4001092B300809176
:10096000AC008F5F8093AC0081E08093AE009091EB
:10097000AC00963420F01092AC008093AE00FF9152
:10098000EF919F918F910F900FBE0F901F90189530
:100990008BE480936E0010926F00109270008DE4D3
:1009A0008093710010927200109273001092740084
:1009B00010927500089580937200609373004093C5
:1009C00074002093750081E080936B0008958093FC
:1009D0006F006093700081E080936A0008951F9318
:1009E000CF93DF93EC01162F9EDBD2DFA895BFDB00
:1009F0008091810084FFFACF612FCE01DF91CF91EA
:100A00001F9191CBFC01808180768032A9F5818194
:100A10008330A1F038F48130D1F0823069F58091D3
:100A20006D000EC08A3031F08B3031F583818093B8
:100A30006C0022C0838180936D001EC080916C0089
:100A400090E0909391008093900081E008958281DE
:100A50008B3441F48EE690E0909391008093900067
:100A600083E008958D3441F481E790E09093910004
:100A70008093900085E0089580E008952EE088E15D
:100A800090E00FB6F894A89581BD0FBE21BD76DC2D
:100A9000B99A8AEFA895EFE3FFE13197F1F700C02B
:100AA00000008150B9F7B99803DF72DF78948BE4C6
:100AB00080936E008DE480937100512C412C312C79
:100AC000212C66246394C1E8DFE410E80CE285E0A1
:100AD000B82E9BEFA92E24E0922E3DE3832E48E40E
:100AE000742EA8958091AD00882309F439C135DEB4
:100AF000C090AF00D090B000E090B100F090B20094
:100B0000FFEFCF16DF06FFE2EF06FFEFFF0661F40F
:100B10005092AF004092B0003092B1002092B200EB
:100B2000C52CD42CE32CF22C8091AF009091B00016
:100B3000A091B100B091B2008E3221ED92072EEF5C
:100B4000A20721E0B20709F4EFC008F055C08E38C3
:100B5000F1E79F07FEEFAF07F1E0BF0709F49FC081
:100B600000F58E3CE1E39E07EEEFAE07E1E0BE0745
:100B700009F49AC08A3BF5E49F07FEEFAF07F1E066
:100B8000BF0709F4C1C08E3D9142AE4FB14009F09C
:100B9000E2C0E0916200F0E0ED59FF4F8081819565
:100BA00095C08A36E5E99E07EEEFAE07E1E0BE07A5
:100BB00009F493C058F48A379548AE4FB14009F014
:100BC000CAC090926F00809270009BC08A35E5EA9F
:100BD0009E07EEEFAE07E1E0BE0709F485C08A3458
:100BE000954BAE4FB14009F0B6C0E0916200F0E025
:100BF000ED59FF4F80816AC08A3B24E492072FEFB2
:100C0000A20721E0B20709F484C008F58E3DF0E2A6
:100C10009F07FFEFAF07F1E0BF0709F480C08E3CEC
:100C200020E392072FEFA20721E0B20709F482C068
:100C30008A30954FAE4FB14009F08DC010927200CE
:100C40001092730010927400B09275003CC08E39FF
:100C5000F0E69F07FFEFAF07F1E0BF0709F472C0AE
:100C600058F48E3A9045AF4FB14009F074C01092DD
:100C70006F001093700045C08E33F0EC9F07FFEFBC
:100C8000AF07F1E0BF07C9F18A33944CAF4FB140D1
:100C900009F061C010926F00D093700032C0609272
:100CA00072001092730016C0E0916200F0E0ED59FE
:100CB000FF4F808181951092720010927300809393
:100CC00074001092750060926B0045C01092720023
:100CD0008093730010927400F4CFE0916200F0E012
:100CE000ED59FF4F8081E7CF109272001092730090
:100CF00010927400A0927500E6CF10926F00C0931E
:100D0000700060926A0027C010926F0070927000AD
:100D1000F8CF10926F0080E580937000F2CF1092B0
:100D20006F0000937000EDCF80916200833098F4E3
:100D30008F5F05C080916200882369F081508093A5
:100D4000620009C080916900882319F0109269003F
:100D500002C0609269009ADD5C2C4D2C3E2C2F2C39
:100D6000A89505DA8091810084FFBBCE80916B004D
:100D7000882331F065E081E790E031DE10926B006E
:100D800080916A00882309F4ACCE63E08EE690E09F
:100D900026DE10926A00A5CEA6E1B0E044E050E065
:100DA00002C0DC01CB01FC01E199FECF06C0FFBB14
:100DB000EEBBE09A31960DB20D9241505040B8F71B
:060DC0000895F894FFCF36
:080DC600FF5A01050F1E3C005D
:00000001FF
