:100000000C9434000C9451000C9420020C94510078
:100010000C9451000C9451000C9451000C94E90183
:100020000C9451000C9451000C9451000C9451000C
:100030000C9451000C9451000C9451000C945100FC
:100040000C9451000C9451000C9451000C945100EC
:100050000C9451000C9451000C9451000C945100DC
:100060000C9451000C94510011241FBECFEFD8E026
:10007000DEBFCDBF11E0A0E0B1E0E0E9F5E002C0F5
:1000800005900D92A430B107D9F721E0A4E0B1E0CA
:1000900001C01D92AF39B207E1F70E9468020C94CB
:1000A000C6020C94000088E08BB91AB8F8948093CB
:1000B000690082E08DBB7894089588E080936900A0
:1000C00008958CE0809369000895F894E1EBF0E0E6
:1000D000108217BA92E09093B0008093B30090938F
:1000E00070001092B2009083789408951092B1003D
:1000F000089582E08093B10008951DBA089582E0CA
:100100008DBB089515B881E084B900008091040189
:10011000811102C081E085B981E0909104019111C3
:1001200080E08093040108950E9482002FEF81EE09
:1001300094E0215080409040E1F700C000000E9410
:1001400082002FEF81EE94E0215080409040E1F753
:1001500000C000000E9482002FEF81EE94E0215049
:1001600080409040E1F700C000000E9482002FEF25
:1001700081EE94E0215080409040E1F700C0000003
:100180000895CF92DF92EF92FF92CF93DF93C0E07A
:10019000D0E0C0900801D0900901E0900A01F090F1
:1001A0000B01CE010E949202C616D706E806F90698
:1001B00021F40E94940081E005C02496C835D10541
:1001C00041F780E0DF91CF91FF90EF90DF90CF90EB
:1001D00008959AEF980F81E0993008F080E0089533
:1001E00094EE980F81E09C3008F080E008959AE545
:1001F000980F81E0933108F080E008958091150117
:1002000090911601865A8331A8F48091170190913C
:100210001801C29778F4809117019091180187977F
:1002200048F08091190190911A019AEF980F81E09E
:10023000993008F080E0089580E090E029E030E017
:10024000FC01EE0FFF1FED5EFE4F31832083019610
:1002500086349105A9F70895CF92DF92EF92FF922D
:100260000F931F93CF93DF93CDB7DEB70DB71EB7B4
:10027000C0900501C3948DB79EB78C1991090FB634
:10028000F8949EBF0FBE8DBF01967C01D82EFC0155
:1002900099E08E2F8D198C1510F49193FACF0E944E
:1002A000FE00811105C0F70184E090E061E026C006
:1002B0008FEF9FEFDC018093080190930901A093D9
:1002C0000A01B0930B0162C09C0121503109220F39
:1002D000331FD901AD5EBE4F4D915C914650493000
:1002E000A0F4DC01AA0FBB1FAD5EBE4F4D915C9127
:1002F0004650493050F41082319602962E2F2D1917
:100300003FEF380F3C1500F314C0D901AD5EBE4F6E
:100310002D913C912650293078F7DC01AA0FBB1FA4
:10032000AD5EBE4F2D913C912C512C3028F760834F
:10033000E3CFF7018E2F8D19821740F5819181113E
:100340000DC08091080190910901A0910A01B0911E
:100350000B01880F991FAA1FBB1F0FC0813051F7D7
:100360008091080190910901A0910A01B0910B01BF
:10037000880F991FAA1FBB1F81608093080190936B
:100380000901A0930A01B0930B01D4CF0E941C0174
:100390000FB6F8941EBF0FBE0DBFDF91CF911F9116
:1003A0000F91FF90EF90DF90CF900895109206018B
:1003B000109208011092090110920A0110920B018B
:1003C0000E941C011092050182E08DBB8093B10058
:1003D00008951F920F920FB60F9211242F938F93AF
:1003E0009F938091100190911101019690931101BA
:1003F0008093100180911001909111018D3C9140EA
:1004000020F0109211011092100180911001909132
:100410001101833C914060F080910701882341F0F5
:1004200081E080930601109207011DBA1092B1007D
:100430009F918F912F910F900FBE0F901F90189545
:100440001F920F920FB60F9211248F939F93EF93E9
:10045000FF93E0910501F0E080911001909111016E
:10046000EE0FFF1FED5EFE4F91838083109211010E
:1004700010921001809105018F5F8093050180919A
:100480000501863420F01DBA81E080930701909128
:10049000120181E0911180E080931201809112019C
:1004A000882319F08CE080936900809112018111FA
:1004B00006C081E08093070188E080936900FF9186
:1004C000EF919F918F910F900FBE0F901F901895F5
:1004D000109207010E941C014091000150910101FE
:1004E000609102017091030180E090E00E94980207
:1004F0000E94530084E60E946500109204010E944D
:1005000094008FE39CE90197F1F700C0000080910F
:1005100006018823B1F30E942C010E94C1000E94B1
:10052000D601EFCFA6E1B0E044E050E00C94A60283
:100530000396272F0E94B5020E94B402252F0E9425
:10054000B502242F0C94B502DC01CB01FC01F99912
:10055000FECF06C0F2BDE1BDF89A319600B40D920F
:1005600041505040B8F70895262FF999FECF92BD1B
:1005700081BDF89A019700B4021639F01FBA20BD68
:100580000FB6F894FA9AF99A0FBE0895F894FFCF2F
:040590003AC5FE0169
:00000001FF
