:100000000C9434000C9446000C9446000C9446006A
:100010000C943B040C9446000C9446000C94E703AB
:100020000C9446000C9446000C9446000C94460038
:100030000C9446000C9446000C9446000C94460028
:100040000C9446000C9446000C9446000C94460018
:100050000C9446000C9446000C9446000C94460008
:100060000C9446000C94460011241FBECFEFD8E03C
:10007000DEBFCDBF21E0A0E0B1E001C01D92A639F6
:10008000B207E1F70E945D030C949F050C940000F9
:10009000CF93DF93CDB7DEB788E290E021E0FC019B
:1000A000208387E290E0FC011082F89488E690E0DB
:1000B00022E0FC0120838CE690E021E0FC0120831B
:1000C0007894DF91CF910895CF93DF93CDB7DEB7CA
:1000D0008CE690E0FC011082DF91CF910895CF93E0
:1000E000DF93CDB7DEB78CE690E021E0FC01208302
:1000F000DF91CF910895CF93DF931F92CDB7DEB7F5
:100100008983F89481EB90E0FC01108287E390E012
:10011000FC01108280EB90E022E0FC01208383EB65
:1001200090E02981FC01208380E790E022E0FC013F
:10013000208382EB90E0FC01108281EB90E022E0D2
:10014000FC01208378940F90DF91CF910895CF9395
:10015000DF93CDB7DEB781EB90E0FC011082DF9139
:10016000CF910895CF93DF93CDB7DEB781EB90E0C9
:1001700022E0FC012083DF91CF910895CF93DF939C
:10018000CDB7DEB785E290E0FC01108284E290E01A
:1001900021E0FC012083000080910001882329F4E4
:1001A00085E290E021E0FC0120839091000181E054
:1001B000992309F080E080930001DF91CF910895A9
:1001C000CF93DF93CDB7DEB72F970FB6F894DEBF8E
:1001D0000FBECDBF198277C00E94BE0080E090E0C4
:1001E000A0E2B1E48A839B83AC83BD8320E030E04E
:1001F0004AE755E46A817B818C819D810E94FE04DF
:10020000DC01CB018E839F83A887B98720E030E093
:1002100040E85FE36E817F81888599850E947D0437
:1002200088232CF481E090E09B878A873FC020E000
:100230003FEF4FE757E46E817F81888599850E9463
:10024000FA0418164CF520E030E040E251E46A81EF
:100250007B818C819D810E94FE04DC01CB01BC016D
:10026000CD010E948104DC01CB019B878A870FC0EE
:1002700080E991E09D878C878C859D850197F1F7BA
:100280009D878C878A859B8501979B878A878A852E
:100290009B85009769F714C06E817F818885998559
:1002A0000E948104DC01CB019B878A878A859B851C
:1002B0009F878E878E859F850197F1F79F878E8711
:1002C00089818F5F89838981843008F485CF2F9657
:1002D0000FB6F894DEBF0FBECDBFDF91CF9108956A
:1002E000CF93DF931F92CDB7DEB719821BC08981F0
:1002F000882F90E00E9489059B01AC018091040148
:1003000090910501A0910601B091070128173907C6
:100310004A075B0721F40E94E00081E007C0898161
:100320008C5F89838981883510F380E00F90DF919D
:10033000CF910895CF93DF931F92CDB7DEB7898316
:100340008981863030F089818F3018F481E090E027
:1003500002C080E090E00F90DF91CF910895CF939D
:10036000DF931F92CDB7DEB7898389818C3130F05E
:100370008981883218F481E090E002C080E090E04A
:100380000F90DF91CF910895CF93DF931F92CDB758
:10039000DEB789838981863A30F08981893B18F4F8
:1003A00081E090E002C080E090E00F90DF91CF917B
:1003B0000895CF93DF93CDB7DEB780910C01909174
:1003C0000D010E94C4018823C9F080910E01909113
:1003D0000F018233910590F480910E0190910F01ED
:1003E0008732910558F080911001909111010E947F
:1003F0009A01882319F081E090E002C080E090E04B
:10040000DF91CF910895CF93DF931F92CDB7DEB7E1
:1004100019820FC08981882F90E0880F991F865F0D
:100420009E4F29E030E0FC013183208389818F5F7A
:1004300089838981863470F30F90DF91CF9108957D
:10044000EF92FF920F931F93CF93DF93CDB7DEB759
:1004500027970FB6F894DEBF0FBECDBF0DB71EB7FE
:100460008DB79EB77C01809101018F5F8B832B81BB
:10047000822F90E001979D838C83822F90E02DB78F
:100480003EB7281B390B0FB6F8943EBF0FBE2DBFE9
:100490008DB79EB701969F838E8319821A820DC0F5
:1004A0008A81882F90E02E813F81820F931F29E05F
:1004B000FC0120838A818F5F8A839A818B819817C0
:1004C00078F30E94D901882369F08FEF9FEFAFE2A4
:1004D000BFEF8093040190930501A0930601B093B0
:1004E0000701A5C083E08A8354C08A81882F90E0E9
:1004F000880F991F865F9E4FFC01808191810E9429
:100500009A018823C9F08A81882F90E00196880F8C
:10051000991F865F9E4FFC01808191810E949A0104
:10052000882351F08981882F90E02E813F81820FAE
:10053000931FFC01108227C08A81882F90E0880FCA
:10054000991F865F9E4FFC01808191810E949A01D4
:100550008823C9F08A81882F90E00196880F991F1F
:10056000865F9E4FFC01808191810E94AF018823AC
:1005700051F08981882F90E02E813F81820F931F57
:1005800021E0FC01208389818F5F89838A818E5FCE
:100590008A839A818B81981708F4A7CF1A8242C068
:1005A0008A81882F90E02E813F81820F931FFC016A
:1005B00080818823A1F48091040190910501A0918C
:1005C0000601B0910701880F991FAA1FBB1F8093D6
:1005D000040190930501A0930601B09307018A815D
:1005E000882F90E02E813F81820F931FFC01808134
:1005F0008130A9F48091040190910501A091060138
:10060000B0910701880F991FAA1FBB1F81608093BB
:10061000040190930501A0930601B09307018A811C
:100620008F5F8A839A818981981708F4B9CF0E94D5
:1006300003020FB6F894FEBE0FBEEDBE0FB6F894DF
:100640001EBF0FBE0DBF27960FB6F894DEBF0FBEBC
:10065000CDBFDF91CF911F910F91FF90EF90089543
:10066000CF93DF93CDB7DEB7109202011092040151
:100670001092050110920601109207010E940302D8
:10068000109201010E946F000E94B200DF91CF9191
:100690000895CF93DF93CDB7DEB7109203010E9488
:1006A00003020E94480084E60E947B001092000131
:1006B0000E94E000DF91CF910895CF93DF93CDB7F3
:1006C000DEB72E970FB6F894DEBF0FBECDBF0E94E7
:1006D000490380E090E0A0E2B1E489839A83AB8390
:1006E000BC8320E030E04AE755E469817A818B8160
:1006F0009C810E94FE04DC01CB018D839E83AF832D
:10070000B88720E030E040E85FE36D817E818F8133
:1007100098850E947D0488232CF481E090E09A87DC
:1007200089873FC020E03FEF4FE757E46D817E812E
:100730008F8198850E94FA0418164CF520E030E06D
:1007400040E251E469817A818B819C810E94FE04A0
:10075000DC01CB01BC01CD010E948104DC01CB0195
:100760009A8789870FC080E991E09C878B878B856A
:100770009C850197F1F79C878B8789859A850197DE
:100780009A87898789859A85009769F714C06D8152
:100790007E818F8198850E948104DC01CB019A873C
:1007A000898789859A859E878D878D859E85019706
:1007B000F1F79E878D8780910201882339F00E948E
:1007C00020020E9470010E94300383CF82CF1F92CB
:1007D0000F9200905F000F9211242F933F934F933D
:1007E0005F936F937F938F939F93AF93BF93EF9399
:1007F000FF93CF93DF93CDB7DEB78091080190913F
:1008000009010196909309018093080180910801E4
:10081000909109018D3C21E0920720F0109209018E
:10082000109208018091080190910901833C21E018
:10083000920768F080910301882349F081E080935A
:100840000201109203010E9464000E94A700DF9140
:10085000CF91FF91EF91BF91AF919F918F917F9138
:100860006F915F914F913F912F910F9000925F0098
:100870000F901F9018951F920F9200905F000F929B
:1008800011242F933F938F939F93EF93FF93CF93D5
:10089000DF93CDB7DEB780910101882F90E02091E2
:1008A000080130910901880F991F865F9E4FFC0156
:1008B0003183208310920901109208018091010177
:1008C0008F5F8093010181E080930301809101019A
:1008D000863428F01092010181E080930301DF91BA
:1008E000CF91FF91EF919F918F913F912F910F9019
:1008F00000925F000F901F9018952FD008F481E0B0
:10090000089557D088F09F5790F0B92F9927B75185
:10091000A0F0D1F0660F771F881F991F1AF0BA95C3
:10092000C9F712C0B13081F05ED0B1E008955BC06C
:10093000672F782F8827B85F39F0B93FCCF38695B9
:1009400077956795B395D9F73EF490958095709516
:1009500061957F4F8F4F9F4F0895990F0008550F56
:10096000AA0BE0E8FEEF16161706E807F907C0F035
:1009700012161306E407F50798F0621B730B840B3D
:10098000950B39F40A2661F0232B242B252B21F417
:1009900008950A2609F4A140A6958FEF811D811DB7
:1009A000089557FD9058440F551F59F05F3F71F05F
:1009B0004795880F97FB991F61F09F3F79F08795C6
:1009C0000895121613061406551FF2CF4695F1DF4F
:1009D00008C0161617061806991FF1CF86957105DF
:1009E000610508940895E894BB2766277727CB0113
:1009F00097F90895B2DF08F48FEF08950BD078C00F
:100A000069D028F06ED018F0952309F05AC05FC065
:100A10001124EACFC6DFA0F3959FD1F3950F50E0E4
:100A2000551F629FF001729FBB27F00DB11D639FA0
:100A3000AA27F00DB11DAA1F649F6627B00DA11D46
:100A4000661F829F2227B00DA11D621F739FB00DEC
:100A5000A11D621F839FA00D611D221F749F33275C
:100A6000A00D611D231F849F600D211D822F762FF5
:100A70006A2F11249F5750408AF0E1F088234AF0F2
:100A8000EE0FFF1FBB1F661F771F881F915050403E
:100A9000A9F79E3F510570F014C0A6CF5F3FECF35D
:100AA000983EDCF3869577956795B795F795E7952A
:100AB0009F5FC1F7FE2B880F911D9695879597F93B
:100AC000089597F99F6780E870E060E008959FEFD0
:100AD00080EC089500240A941616170618060906D5
:100AE000089500240A9412161306140605060895A4
:100AF000092E0394000C11F4882352F0BB0F40F42C
:100B0000BF2B11F460FF04C06F5F7F4F8F4F9F4F6B
:100B10000895A6E1B0E044E050E00C949105DC01BA
:100B2000CB01FC01F999FECF06C0F2BDE1BDF89AF8
:100B3000319600B40D9241505040B8F70895F894A2
:020B4000FFCFE5
:00000001FF
